{
  "contractName": "AllOrNothing",
  "abi": [
    {
      "inputs": [
        {
          "internalType": "string",
          "name": "_outcomeDescriptionA",
          "type": "string"
        },
        {
          "internalType": "string",
          "name": "_outcomeDescriptionB",
          "type": "string"
        },
        {
          "internalType": "string",
          "name": "_betDescribtion",
          "type": "string"
        },
        {
          "internalType": "address",
          "name": "_owner",
          "type": "address"
        }
      ],
      "stateMutability": "nonpayable",
      "type": "constructor"
    },
    {
      "anonymous": false,
      "inputs": [
        {
          "indexed": false,
          "internalType": "address",
          "name": "_betMaker",
          "type": "address"
        },
        {
          "indexed": false,
          "internalType": "uint256",
          "name": "_amount",
          "type": "uint256"
        },
        {
          "indexed": false,
          "internalType": "uint256",
          "name": "_outcome",
          "type": "uint256"
        },
        {
          "indexed": false,
          "internalType": "int256",
          "name": "outcomeBetTotal",
          "type": "int256"
        }
      ],
      "name": "LogBet",
      "type": "event"
    },
    {
      "anonymous": false,
      "inputs": [
        {
          "indexed": false,
          "internalType": "uint256",
          "name": "outcome",
          "type": "uint256"
        },
        {
          "indexed": false,
          "internalType": "int256",
          "name": "_BetsMatched",
          "type": "int256"
        }
      ],
      "name": "LogBetMakerMatch",
      "type": "event"
    },
    {
      "anonymous": false,
      "inputs": [
        {
          "indexed": false,
          "internalType": "uint256",
          "name": "outcome",
          "type": "uint256"
        },
        {
          "indexed": false,
          "internalType": "int256",
          "name": "_BetsMatched",
          "type": "int256"
        },
        {
          "indexed": false,
          "internalType": "uint256",
          "name": "_betAvalabile",
          "type": "uint256"
        }
      ],
      "name": "LogBetTakerMatch",
      "type": "event"
    },
    {
      "anonymous": false,
      "inputs": [
        {
          "indexed": false,
          "internalType": "int256",
          "name": "_preBetOutcomeDifference",
          "type": "int256"
        },
        {
          "indexed": false,
          "internalType": "int256",
          "name": "_postBetDifference",
          "type": "int256"
        },
        {
          "indexed": false,
          "internalType": "int256",
          "name": "_Matches",
          "type": "int256"
        }
      ],
      "name": "LogMatchMade",
      "type": "event"
    },
    {
      "anonymous": false,
      "inputs": [
        {
          "indexed": false,
          "internalType": "int256",
          "name": "_preBetOutcomeDifference",
          "type": "int256"
        },
        {
          "indexed": false,
          "internalType": "int256",
          "name": "_postBetDifference",
          "type": "int256"
        },
        {
          "indexed": false,
          "internalType": "int256",
          "name": "_Matches",
          "type": "int256"
        }
      ],
      "name": "LogNoMatches",
      "type": "event"
    },
    {
      "anonymous": false,
      "inputs": [
        {
          "indexed": false,
          "internalType": "uint256",
          "name": "_withdrawAmount",
          "type": "uint256"
        },
        {
          "indexed": false,
          "internalType": "uint256",
          "name": "outcome",
          "type": "uint256"
        }
      ],
      "name": "LogWithdrawUnMatchedBet",
      "type": "event"
    },
    {
      "anonymous": false,
      "inputs": [
        {
          "indexed": false,
          "internalType": "uint256",
          "name": "playerBetIndex",
          "type": "uint256"
        }
      ],
      "name": "logPlayerIndex",
      "type": "event"
    },
    {
      "anonymous": false,
      "inputs": [
        {
          "indexed": false,
          "internalType": "uint256",
          "name": "playerBetIndex",
          "type": "uint256"
        }
      ],
      "name": "logRedeemBet",
      "type": "event"
    },
    {
      "anonymous": false,
      "inputs": [
        {
          "indexed": false,
          "internalType": "uint256",
          "name": "winningOutcome",
          "type": "uint256"
        }
      ],
      "name": "logResolveBet",
      "type": "event"
    },
    {
      "anonymous": false,
      "inputs": [
        {
          "indexed": false,
          "internalType": "uint256",
          "name": "winnings",
          "type": "uint256"
        }
      ],
      "name": "logWinnings",
      "type": "event"
    },
    {
      "anonymous": false,
      "inputs": [
        {
          "indexed": false,
          "internalType": "uint256",
          "name": "i",
          "type": "uint256"
        },
        {
          "indexed": false,
          "internalType": "uint256",
          "name": "AvalibileBet",
          "type": "uint256"
        }
      ],
      "name": "logWithdrawalLoop",
      "type": "event"
    },
    {
      "anonymous": false,
      "inputs": [
        {
          "indexed": false,
          "internalType": "uint256",
          "name": "",
          "type": "uint256"
        }
      ],
      "name": "loopFirstLoop",
      "type": "event"
    },
    {
      "anonymous": false,
      "inputs": [
        {
          "indexed": false,
          "internalType": "uint256",
          "name": "_withdrawOutcome",
          "type": "uint256"
        }
      ],
      "name": "loopRunning",
      "type": "event"
    },
    {
      "stateMutability": "nonpayable",
      "type": "fallback"
    },
    {
      "inputs": [],
      "name": "betDescription",
      "outputs": [
        {
          "internalType": "string",
          "name": "",
          "type": "string"
        }
      ],
      "stateMutability": "view",
      "type": "function",
      "constant": true
    },
    {
      "inputs": [
        {
          "internalType": "uint256",
          "name": "",
          "type": "uint256"
        }
      ],
      "name": "outcome",
      "outputs": [
        {
          "internalType": "string",
          "name": "outcomeDescription",
          "type": "string"
        },
        {
          "internalType": "int256",
          "name": "outcomeBetTotal",
          "type": "int256"
        },
        {
          "internalType": "int256",
          "name": "outcomeBetAvailabilityCounter",
          "type": "int256"
        }
      ],
      "stateMutability": "view",
      "type": "function",
      "constant": true
    },
    {
      "inputs": [],
      "name": "outcomeA",
      "outputs": [
        {
          "internalType": "uint256",
          "name": "",
          "type": "uint256"
        }
      ],
      "stateMutability": "view",
      "type": "function",
      "constant": true
    },
    {
      "inputs": [],
      "name": "outcomeB",
      "outputs": [
        {
          "internalType": "uint256",
          "name": "",
          "type": "uint256"
        }
      ],
      "stateMutability": "view",
      "type": "function",
      "constant": true
    },
    {
      "inputs": [],
      "name": "owner",
      "outputs": [
        {
          "internalType": "address",
          "name": "",
          "type": "address"
        }
      ],
      "stateMutability": "view",
      "type": "function",
      "constant": true
    },
    {
      "inputs": [],
      "name": "state",
      "outputs": [
        {
          "internalType": "enum AllOrNothing.States",
          "name": "",
          "type": "uint8"
        }
      ],
      "stateMutability": "view",
      "type": "function",
      "constant": true
    },
    {
      "inputs": [],
      "name": "stopped",
      "outputs": [
        {
          "internalType": "bool",
          "name": "",
          "type": "bool"
        }
      ],
      "stateMutability": "view",
      "type": "function",
      "constant": true
    },
    {
      "inputs": [],
      "name": "winningOutcome",
      "outputs": [
        {
          "internalType": "uint256",
          "name": "",
          "type": "uint256"
        }
      ],
      "stateMutability": "view",
      "type": "function",
      "constant": true
    },
    {
      "inputs": [
        {
          "internalType": "uint256",
          "name": "_outcome",
          "type": "uint256"
        }
      ],
      "name": "placeBet",
      "outputs": [],
      "stateMutability": "payable",
      "type": "function",
      "payable": true
    },
    {
      "inputs": [],
      "name": "withdrawUnmatchedBets",
      "outputs": [],
      "stateMutability": "nonpayable",
      "type": "function"
    },
    {
      "inputs": [
        {
          "internalType": "uint256",
          "name": "_outcome",
          "type": "uint256"
        },
        {
          "internalType": "uint256",
          "name": "_betArrayIndex",
          "type": "uint256"
        }
      ],
      "name": "getOutcomeBetAmount",
      "outputs": [
        {
          "internalType": "uint256",
          "name": "_amount",
          "type": "uint256"
        },
        {
          "internalType": "uint256",
          "name": "_betMatched",
          "type": "uint256"
        }
      ],
      "stateMutability": "view",
      "type": "function",
      "constant": true
    },
    {
      "inputs": [
        {
          "internalType": "uint256",
          "name": "_outcome",
          "type": "uint256"
        }
      ],
      "name": "getPlayerBetsArrayLength",
      "outputs": [
        {
          "internalType": "uint256",
          "name": "",
          "type": "uint256"
        }
      ],
      "stateMutability": "view",
      "type": "function",
      "constant": true
    },
    {
      "inputs": [
        {
          "internalType": "uint256",
          "name": "_winningOutcome",
          "type": "uint256"
        }
      ],
      "name": "resolveBet",
      "outputs": [],
      "stateMutability": "nonpayable",
      "type": "function"
    },
    {
      "inputs": [],
      "name": "redeem",
      "outputs": [],
      "stateMutability": "nonpayable",
      "type": "function"
    },
    {
      "inputs": [],
      "name": "emergancyStop",
      "outputs": [],
      "stateMutability": "nonpayable",
      "type": "function"
    },
    {
      "inputs": [],
      "name": "getOutcomeDescriptions",
      "outputs": [
        {
          "internalType": "string",
          "name": "",
          "type": "string"
        },
        {
          "internalType": "string",
          "name": "",
          "type": "string"
        }
      ],
      "stateMutability": "view",
      "type": "function",
      "constant": true
    },
    {
      "inputs": [],
      "name": "getOutcomeTotals",
      "outputs": [
        {
          "internalType": "int256",
          "name": "",
          "type": "int256"
        },
        {
          "internalType": "int256",
          "name": "",
          "type": "int256"
        }
      ],
      "stateMutability": "view",
      "type": "function",
      "constant": true
    }
  ],
  "bytecode": "0x60806040526000600160146101000a81548160ff021916908360018111156200002457fe5b0217905550600060045560016005556000600860006101000a81548160ff0219169083151502179055503480156200005b57600080fd5b506040516200281e3803806200281e833981810160405260808110156200008157600080fd5b8101908080516040519392919084640100000000821115620000a257600080fd5b83820191506020820185811115620000b957600080fd5b8251866001820283011164010000000082111715620000d757600080fd5b8083526020830192505050908051906020019080838360005b838110156200010d578082015181840152602081019050620000f0565b50505050905090810190601f1680156200013b5780820380516001836020036101000a031916815260200191505b50604052602001805160405193929190846401000000008211156200015f57600080fd5b838201915060208201858111156200017657600080fd5b82518660018202830111640100000000821117156200019457600080fd5b8083526020830192505050908051906020019080838360005b83811015620001ca578082015181840152602081019050620001ad565b50505050905090810190601f168015620001f85780820380516001836020036101000a031916815260200191505b50604052602001805160405193929190846401000000008211156200021c57600080fd5b838201915060208201858111156200023357600080fd5b82518660018202830111640100000000821117156200025157600080fd5b8083526020830192505050908051906020019080838360005b83811015620002875780820151818401526020810190506200026a565b50505050905090810190601f168015620002b55780820380516001836020036101000a031916815260200191505b5060405260200180519060200190929190505050836003600060045481526020019081526020016000206000019080519060200190620002f792919062000392565b508260036000600554815260200190815260200160002060000190805190602001906200032692919062000392565b5081600090805190602001906200033f92919062000392565b5080600160006101000a81548173ffffffffffffffffffffffffffffffffffffffff021916908373ffffffffffffffffffffffffffffffffffffffff160217905550600280819055505050505062000438565b828054600181600116156101000203166002900490600052602060002090601f016020900481019282601f10620003d557805160ff191683800117855562000406565b8280016001018555821562000406579182015b8281111562000405578251825591602001919060010190620003e8565b5b50905062000415919062000419565b5090565b5b80821115620004345760008160009055506001016200041a565b5090565b6123d680620004486000396000f3fe6080604052600436106101025760003560e01c80638da5cb5b11610095578063c19d93fb11610064578063c19d93fb146104d2578063cca6971f14610508578063d35d2dcf14610557578063de161d16146105b7578063f91bae03146105e257610103565b80638da5cb5b146103535780639b34ae0314610394578063be040fb0146103bf578063bfcdee75146103d657610103565b80634c36c36e116100d15780634c36c36e146101fe5780635a11492a146102395780635f1b0e73146102fb57806375f12b211461032657610103565b806308dda285146101125780630f02a91e146101a257806310fe7c48146101b9578063385813fc146101e757610103565b5b34801561010f57600080fd5b50005b34801561011e57600080fd5b50610127610614565b6040518080602001828103825283818151815260200191508051906020019080838360005b8381101561016757808201518184015260208101905061014c565b50505050905090810190601f1680156101945780820380516001836020036101000a031916815260200191505b509250505060405180910390f35b3480156101ae57600080fd5b506101b76106b2565b005b6101e5600480360360208110156101cf57600080fd5b81019080803590602001909291905050506109e7565b005b3480156101f357600080fd5b506101fc610e56565b005b34801561020a57600080fd5b506102376004803603602081101561022157600080fd5b8101908080359060200190929190505050610edc565b005b34801561024557600080fd5b506102726004803603602081101561025c57600080fd5b810190808035906020019092919050505061109b565b6040518080602001848152602001838152602001828103825285818151815260200191508051906020019080838360005b838110156102be5780820151818401526020810190506102a3565b50505050905090810190601f1680156102eb5780820380516001836020036101000a031916815260200191505b5094505050505060405180910390f35b34801561030757600080fd5b5061031061115d565b6040518082815260200191505060405180910390f35b34801561033257600080fd5b5061033b611163565b60405180821515815260200191505060405180910390f35b34801561035f57600080fd5b50610368611176565b604051808273ffffffffffffffffffffffffffffffffffffffff16815260200191505060405180910390f35b3480156103a057600080fd5b506103a961119c565b6040518082815260200191505060405180910390f35b3480156103cb57600080fd5b506103d46111a2565b005b3480156103e257600080fd5b506103eb6114b3565b604051808060200180602001838103835285818151815260200191508051906020019080838360005b8381101561042f578082015181840152602081019050610414565b50505050905090810190601f16801561045c5780820380516001836020036101000a031916815260200191505b50838103825284818151815260200191508051906020019080838360005b8381101561049557808201518184015260208101905061047a565b50505050905090810190601f1680156104c25780820380516001836020036101000a031916815260200191505b5094505050505060405180910390f35b3480156104de57600080fd5b506104e761162c565b604051808260018111156104f757fe5b815260200191505060405180910390f35b34801561051457600080fd5b506105416004803603602081101561052b57600080fd5b810190808035906020019092919050505061163f565b6040518082815260200191505060405180910390f35b34801561056357600080fd5b5061059a6004803603604081101561057a57600080fd5b8101908080359060200190929190803590602001909291905050506116a4565b604051808381526020018281526020019250505060405180910390f35b3480156105c357600080fd5b506105cc611724565b6040518082815260200191505060405180910390f35b3480156105ee57600080fd5b506105f761172a565b604051808381526020018281526020019250505060405180910390f35b60008054600181600116156101000203166002900480601f0160208091040260200160405190810160405280929190818152602001828054600181600116156101000203166002900480156106aa5780601f1061067f576101008083540402835291602001916106aa565b820191906000526020600020905b81548152906001019060200180831161068d57829003601f168201915b505050505081565b600860009054906101000a900460ff16156106cc57600080fd5b6000806003600060018152602001908152602001600020600101546003600083815260200190815260200160002060010154131561070d5760009050610753565b6003600060018152602001908152602001600020600101546003600083815260200190815260200160002060010154121561074b5760019050610752565b50506109e5565b5b6000600360008381526020019081526020016000206002015490505b600360008381526020019081526020016000206003018054905081101561099a573373ffffffffffffffffffffffffffffffffffffffff166003600084815260200190815260200160002060030182815481106107c857fe5b906000526020600020906003020160000160009054906101000a900473ffffffffffffffffffffffffffffffffffffffff1673ffffffffffffffffffffffffffffffffffffffff16141561094e5761089f61089060036000858152602001908152602001600020600301838154811061083d57fe5b90600052602060002090600302016002015460036000868152602001908152602001600020600301848154811061087057fe5b90600052602060002090600302016001015461177390919063ffffffff16565b846117bd90919063ffffffff16565b92506003600083815260200190815260200160002060030181815481106108c257fe5b9060005260206000209060030201600201546003600084815260200190815260200160002060030182815481106108f557fe5b90600052602060002090600302016001018190555061093383600360008581526020019081526020016000206001015461184590919063ffffffff16565b60036000848152602001908152602001600020600101819055505b7f7ad52c14f029d7cb16ab2dd6c5bbdd93f7d77346674b97dc5a90cef55e2531758383604051808381526020018281526020019250505060405180910390a1808060010191505061076f565b503373ffffffffffffffffffffffffffffffffffffffff166108fc839081150290604051600060405180830381858888f193505050501580156109e1573d6000803e3d6000fd5b5050505b565b600860009054906101000a900460ff1615610a0157600080fd5b6000811480610a105750600181145b610a65576040517f08c379a00000000000000000000000000000000000000000000000000000000081526004018080602001828103825260268152602001806122a46026913960400191505060405180910390fd5b60006001811115610a7257fe5b600160149054906101000a900460ff166001811115610a8d57fe5b14610a9757600080fd5b600080821415610aaa5760019050610aaf565b600090505b610adb6003806000848152602001908152602001600020600301805490506117bd90919063ffffffff16565b600360008481526020019081526020016000206003018054905010610b68576040517f08c379a000000000000000000000000000000000000000000000000000000000815260040180806020018281038252601a8152602001807f746f6f206d616e792062657473206f6e65206f6e65207369646500000000000081525060200191505060405180910390fd5b600360006001815260200190815260200160002060010154600360008081526020019081526020016000206001015403600681905550610ba661226c565b33816000019073ffffffffffffffffffffffffffffffffffffffff16908173ffffffffffffffffffffffffffffffffffffffff168152505034816020018181525050600060036000858152602001908152602001600020600301905060006003600086815260200190815260200160002060040160003373ffffffffffffffffffffffffffffffffffffffff1673ffffffffffffffffffffffffffffffffffffffff16815260200190815260200160002090508183908060018154018082558091505060019003906000526020600020906003020160009091909190915060008201518160000160006101000a81548173ffffffffffffffffffffffffffffffffffffffff021916908373ffffffffffffffffffffffffffffffffffffffff16021790555060208201518160010155604082015181600201555050610d0e836020015160036000888152602001908152602001600020600101546118d390919063ffffffff16565b600360008781526020019081526020016000206001018190555080610d416001848054905061177390919063ffffffff16565b90806001815401808255809150506001900390600052602060002001600090919091909150557f52814856aac0ea1006cb361e84b70a5a9e724b1cdef838bc2fce301005ef5234333487600360008a815260200190815260200160002060010154604051808573ffffffffffffffffffffffffffffffffffffffff16815260200184815260200183815260200182815260200194505050505060405180910390a1610e22600360006001815260200190815260200160002060010154600360008081526020019081526020016000206001015461184590919063ffffffff16565b6007819055506000610e38600654600754611961565b90506000811315610e4e57610e4d8187611bfc565b5b505050505050565b600160009054906101000a900473ffffffffffffffffffffffffffffffffffffffff1673ffffffffffffffffffffffffffffffffffffffff163373ffffffffffffffffffffffffffffffffffffffff1614610eb057600080fd5b600860009054906101000a900460ff1615600860006101000a81548160ff021916908315150217905550565b600160009054906101000a900473ffffffffffffffffffffffffffffffffffffffff1673ffffffffffffffffffffffffffffffffffffffff163373ffffffffffffffffffffffffffffffffffffffff1614610f3657600080fd5b60006001811115610f4357fe5b600160149054906101000a900460ff166001811115610f5e57fe5b14610fb4576040517f08c379a00000000000000000000000000000000000000000000000000000000081526004018080602001828103825260228152602001806123316022913960400191505060405180910390fd5b6000811480610fc35750600181145b611035576040517f08c379a000000000000000000000000000000000000000000000000000000000815260040180806020018281038252601c8152602001807f56616c6964206f7574636f6d65732063616e2062652030206f7220310000000081525060200191505060405180910390fd5b60018060146101000a81548160ff0219169083600181111561105357fe5b0217905550806002819055507f8ae26df819f98518849500219496edada02452f608e3a69b4242d9ab702054f26002546040518082815260200191505060405180910390a150565b6003602052806000526040600020600091509050806000018054600181600116156101000203166002900480601f0160208091040260200160405190810160405280929190818152602001828054600181600116156101000203166002900480156111475780601f1061111c57610100808354040283529160200191611147565b820191906000526020600020905b81548152906001019060200180831161112a57829003601f168201915b5050505050908060010154908060020154905083565b60045481565b600860009054906101000a900460ff1681565b600160009054906101000a900473ffffffffffffffffffffffffffffffffffffffff1681565b60025481565b600860009054906101000a900460ff16156111bc57600080fd5b6001808111156111c857fe5b600160149054906101000a900460ff1660018111156111e357fe5b14611239576040517f08c379a00000000000000000000000000000000000000000000000000000000081526004018080602001828103825260258152602001806122eb6025913960400191505060405180910390fd5b600061124660025461163f565b1161129c576040517f08c379a000000000000000000000000000000000000000000000000000000000815260040180806020018281038252602a815260200180612353602a913960400191505060405180910390fd5b60008060005b6112c060016112b260025461163f565b61177390919063ffffffff16565b811161141a5760036000600254815260200190815260200160002060040160003373ffffffffffffffffffffffffffffffffffffffff1673ffffffffffffffffffffffffffffffffffffffff168152602001908152602001600020818154811061132657fe5b906000526020600020015492507f02db9da4447ad49339528f64c5b1d506b5bcb7675f35101eed6b26af09dd174b836040518082815260200191505060405180910390a160036000600254815260200190815260200160002060020154831361140d576113d060036000600254815260200190815260200160002060030184815481106113af57fe5b906000526020600020906003020160020154836117bd90919063ffffffff16565b9150600060036000600254815260200190815260200160002060030184815481106113f757fe5b9060005260206000209060030201600201819055505b80806001019150506112a2565b5061142f60028261212690919063ffffffff16565b90507ffb4c6ef5a9e91edabb8f61765cc7f138c3ab1b4009dde31c3ccb2e14cd1b9303816040518082815260200191505060405180910390a13373ffffffffffffffffffffffffffffffffffffffff166108fc829081150290604051600060405180830381858888f193505050501580156114ae573d6000803e3d6000fd5b505050565b60608060606003600060045481526020019081526020016000206000018054600181600116156101000203166002900480601f0160208091040260200160405190810160405280929190818152602001828054600181600116156101000203166002900480156115645780601f1061153957610100808354040283529160200191611564565b820191906000526020600020905b81548152906001019060200180831161154757829003601f168201915b5050505050905060606003600060055481526020019081526020016000206000018054600181600116156101000203166002900480601f0160208091040260200160405190810160405280929190818152602001828054600181600116156101000203166002900480156116195780601f106115ee57610100808354040283529160200191611619565b820191906000526020600020905b8154815290600101906020018083116115fc57829003601f168201915b5050505050905081819350935050509091565b600160149054906101000a900460ff1681565b6000806003600084815260200190815260200160002060040160003373ffffffffffffffffffffffffffffffffffffffff1673ffffffffffffffffffffffffffffffffffffffff16815260200190815260200160002080549050905080915050919050565b60008060006003600086815260200190815260200160002060030184815481106116ca57fe5b9060005260206000209060030201600101549050600060036000878152602001908152602001600020600301858154811061170157fe5b906000526020600020906003020160020154905081819350935050509250929050565b60055481565b6000806000600360006004548152602001908152602001600020600101549050600060036000600554815260200190815260200160002060010154905081819350935050509091565b60006117b583836040518060400160405280601e81526020017f536166654d6174683a207375627472616374696f6e206f766572666c6f7700008152506121ac565b905092915050565b60008082840190508381101561183b576040517f08c379a000000000000000000000000000000000000000000000000000000000815260040180806020018281038252601b8152602001807f536166654d6174683a206164646974696f6e206f766572666c6f77000000000081525060200191505060405180910390fd5b8091505092915050565b60008082840390506000831215801561185e5750838113155b80611874575060008312801561187357508381135b5b6118c9576040517f08c379a000000000000000000000000000000000000000000000000000000000815260040180806020018281038252602481526020018061237d6024913960400191505060405180910390fd5b8091505092915050565b6000808284019050600083121580156118ec5750838112155b80611902575060008312801561190157508381125b5b611957576040517f08c379a00000000000000000000000000000000000000000000000000000000081526004018080602001828103825260218152602001806122ca6021913960400191505060405180910390fd5b8091505092915050565b60008282128015611973575060008313155b8061198a57508282138015611989575060008312155b5b156119df57600090507f0547a09da7942df713e204430c935a0b166ed62a532097e4fe69faaf6dab53b583838360405180848152602001838152602001828152602001935050505060405180910390a1611bf6565b82821380156119ee5750600083125b80156119fb575060008212155b15611a66576000611a176006548261184590919063ffffffff16565b91507fb2523c70814b71405abf777083dc2578cd835d0c7f207e5eab7cbd434bf891ca84848460405180848152602001838152602001828152602001935050505060405180910390a150611bf6565b8282138015611a755750600083125b8015611a815750600082125b15611aeb57611a9d60065460075461184590919063ffffffff16565b90507fb2523c70814b71405abf777083dc2578cd835d0c7f207e5eab7cbd434bf891ca83838360405180848152602001838152602001828152602001935050505060405180910390a1611bf6565b8282128015611afa5750600083135b8015611b07575060008213155b15611b7057611b22600060065461184590919063ffffffff16565b90507fb2523c70814b71405abf777083dc2578cd835d0c7f207e5eab7cbd434bf891ca83838360405180848152602001838152602001828152602001935050505060405180910390a1611bf6565b8282128015611b7f5750600083135b8015611b8b5750600082135b15611bf557611ba760075460065461184590919063ffffffff16565b90507fb2523c70814b71405abf777083dc2578cd835d0c7f207e5eab7cbd434bf891ca83838360405180848152602001838152602001828152602001935050505060405180910390a1611bf6565b5b92915050565b6000806000831415611c115760019050611c16565b600090505b611c878460036000868152602001908152602001600020600301611c5d6001600360008981526020019081526020016000206003018054905061177390919063ffffffff16565b81548110611c6757fe5b9060005260206000209060030201600201546117bd90919063ffffffff16565b60036000858152602001908152602001600020600301611cca6001600360008881526020019081526020016000206003018054905061177390919063ffffffff16565b81548110611cd457fe5b90600052602060002090600302016002018190555060036000848152602001908152602001600020600201600081548092919060010191905055507fdc6d471e109dc17d0ba4493857f02b9416045716b906c2d891a43b95997dd3838385604051808381526020018281526020019250505060405180910390a15b611df260036000838152602001908152602001600020600301600360008481526020019081526020016000206002015481548110611d8957fe5b90600052602060002090600302016002015460036000848152602001908152602001600020600301600360008581526020019081526020016000206002015481548110611dd257fe5b90600052602060002090600302016001015461177390919063ffffffff16565b915083821115611ef357611e578460036000848152602001908152602001600020600301600360008581526020019081526020016000206002015481548110611e3757fe5b9060005260206000209060030201600201546117bd90919063ffffffff16565b60036000838152602001908152602001600020600301600360008481526020019081526020016000206002015481548110611e8e57fe5b906000526020600020906003020160020181905550600093507fed36704f40cefcc51272476df82519635e176f3c23370a8ec02fac3a0a25889783858460405180848152602001838152602001828152602001935050505060405180910390a1612118565b838214156120065760036000828152602001908152602001600020600301600360008381526020019081526020016000206002015481548110611f3257fe5b90600052602060002090600302016001015460036000838152602001908152602001600020600301600360008481526020019081526020016000206002015481548110611f7b57fe5b9060005260206000209060030201600201819055506000935060036000828152602001908152602001600020600201600081548092919060010191905055507fed36704f40cefcc51272476df82519635e176f3c23370a8ec02fac3a0a25889783858460405180848152602001838152602001828152602001935050505060405180910390a1612117565b83821015612116576003600082815260200190815260200160002060030160036000838152602001908152602001600020600201548154811061204557fe5b9060005260206000209060030201600101546003600083815260200190815260200160002060030160036000848152602001908152602001600020600201548154811061208e57fe5b906000526020600020906003020160020181905550818403935060036000828152602001908152602001600020600201600081548092919060010191905055507fed36704f40cefcc51272476df82519635e176f3c23370a8ec02fac3a0a25889783858460405180848152602001838152602001828152602001935050505060405180910390a15b5b5b60008413611d4f5750505050565b60008083141561213957600090506121a6565b600082840290508284828161214a57fe5b04146121a1576040517f08c379a00000000000000000000000000000000000000000000000000000000081526004018080602001828103825260218152602001806123106021913960400191505060405180910390fd5b809150505b92915050565b6000838311158290612259576040517f08c379a00000000000000000000000000000000000000000000000000000000081526004018080602001828103825283818151815260200191508051906020019080838360005b8381101561221e578082015181840152602081019050612203565b50505050905090810190601f16801561224b5780820380516001836020036101000a031916815260200191505b509250505060405180910390fd5b5060008385039050809150509392505050565b6040518060600160405280600073ffffffffffffffffffffffffffffffffffffffff1681526020016000815260200160008152509056fe696e707574206d7573742062652030206f7574636f6d6541206f722031206f7574636f6d65425369676e6564536166654d6174683a206164646974696f6e206f766572666c6f77426574206d757374206265207265736f6c766564206265666f72652072656465656d696e67536166654d6174683a206d756c7469706c69636174696f6e206f766572666c6f7743616e206f6e6c79207265736f6c766520612062657420696620697473206f70656e55736572206d757374206f66206d616465206120626574206f6e2077696e6e696e67206f7574636f6d655369676e6564536166654d6174683a207375627472616374696f6e206f766572666c6f77a2646970667358221220184ac3565c89d16735d67cfd619f5d05a0766422c75f2502fb67dd3794cc8acd64736f6c634300060c0033",
  "immutableReferences": {},
  "source": "// SPDX-License-Identifier: GPL-3.0\npragma solidity >=0.6.0 <0.8.0;\nimport \"@openzeppelin/contracts/math/SignedSafeMath.sol\";\nimport \"@openzeppelin/contracts/math/SafeMath.sol\";\n\n//General notes\n// This smart contract will focus on matching via two arrays of bet structs\n//constraint, bet will only have 2 outcomes\n//minting of outcome tokens should be another contract\n//refactored bet function to take bet side as an input. \n//refactored to find oldest avalaible bet avaliabilty via an index instead of looping\n//refactor initial bet counter\n//added events/logging \n//Natspec Comments \n// Cancel Bet Feature\n//Safe Math // Note safe math in the update bet function GAS's out. think its incrementing by add(1). \n// Refactor to remove duplicate code and control while statement. \n//ETH only bets with contract deployer as bet Admin\n// do a way with the do/while statement for updating bets, its breaking due to gas\n// this function can be reworked using the playerBets mapping \n\n\n/// @title A betting market maker which matches bets at a one to one ratio. \n/// @author Graeme Barnes\n/// @notice This contract faciliates all or nothing betting\n/// @dev This contract has not been audited and has implict assumption that bet has two outcomes, A and B. \n\n\ncontract AllOrNothing {\n    \n///@notice use safe math for uint \nusing SignedSafeMath for int;\nusing SafeMath for uint;\n\n/// @notice this struct contains all information relating to a users bet. \nstruct Bet {\n    address betMaker;\n    uint amount; //varible to show how much was bet \n    uint betMatched; //varible to show how much bet has been filled, plus how much is avalible. \n}\n\n/// @notice struct to hold metadata accosiated with an outcome\nstruct BetMetaData {\n    string outcomeDescription;\n    int outcomeBetTotal; //ref to int public outcomeABetTotal\n    int outcomeBetAvailabilityCounter; // ref uint public outcomeABetAvailabilityCounter;\n    Bet [] outcomeBets;\n    mapping (address => uint[]) playerBets;\n}\n\n/// @notice Bet description\nstring public betDescription; \n\n/// @notice Owner of contract may resolve betDescription\naddress public owner;\n\n/// @notice Bet state\nenum States { Open, Resolved }\n/// @notice state is set to open\nStates public state = States.Open;\n\n/// @notice winningOutcome \nuint256 public winningOutcome;\n\n/// @notice map outcomes to thier metadata\nmapping (uint => BetMetaData) public outcome;\n\n/// @notice outcomes A and B are represent by 0 and  respectively so that it may be used as an in put in the Bet function. \nuint public outcomeA = 0;\nuint public outcomeB = 1; \nint private preBetOutcomeDifference;\nint private postBetDifference;\n\n/// @notice emergancy Stop varible\n bool public stopped = false;\n\n /// Modifiers\n modifier stopInEmergency { require(!stopped); _; }\n modifier onlyOwner { require(msg.sender == owner); _;}\n\n/// Events\n\n/// @notice Log events when user has made a bet\nevent LogBet(address _betMaker, uint _amount, uint _outcome, int outcomeBetTotal);\n\n/// @notice Log events for BetsToBeMatched function\nevent LogNoMatches(int _preBetOutcomeDifference,int _postBetDifference, int _Matches);\nevent LogMatchMade(int _preBetOutcomeDifference, int _postBetDifference, int _Matches);\n\n/// @notice Log events for updating Bets \n/// add varibles for the Bet's Amount and BetMatched after Bet. \nevent LogBetMakerMatch(uint outcome, int _BetsMatched);\nevent LogBetTakerMatch(uint outcome, int _BetsMatched, uint _betAvalabile);\n\n/// @notice Log events for withdrawing unMatched Bets\nevent logWithdrawalLoop(uint i, uint AvalibileBet);\nevent logPlayerIndex(uint playerBetIndex);\nevent LogWithdrawUnMatchedBet(uint _withdrawAmount, uint outcome);\nevent loopRunning(uint _withdrawOutcome);\nevent loopFirstLoop(uint );\n\n/// @notice log events for resolving a market\nevent logResolveBet(uint winningOutcome);\n\n/// @notice log evetns for redeeming matched bets\nevent logRedeemBet(uint playerBetIndex);\nevent logWinnings(uint winnings);\n\nconstructor (string memory _outcomeDescriptionA, string memory _outcomeDescriptionB, string memory _betDescribtion, address _owner) public {\n    outcome[outcomeA].outcomeDescription = _outcomeDescriptionA;\n    outcome[outcomeB].outcomeDescription = _outcomeDescriptionB;\n    betDescription = _betDescribtion;\n    owner = _owner;\n    winningOutcome = 2;\n}\n\n/// @notice function for user to make a bet by adding a Bet to the corresponding bet array. \n/// @param _outcome, 0 or 1 will place bet in A or B array respectively. \nfunction placeBet (uint _outcome) stopInEmergency public payable {\n    require (_outcome == 0 || _outcome == 1, \"input must be 0 outcomeA or 1 outcomeB\");\n    require (state == States.Open);\n    uint oppositeOutcome;\n    if (_outcome == 0){\n         oppositeOutcome = 1;\n    } else {\n        oppositeOutcome =0;\n    }\n    require(outcome[_outcome].outcomeBets.length < outcome[oppositeOutcome].outcomeBets.length.add(3), \"too many bets one one side\");\n    \n    preBetOutcomeDifference = outcome[0].outcomeBetTotal - outcome[1].outcomeBetTotal;\n    Bet memory b;\n    b.betMaker = msg.sender;\n    b.amount = msg.value;\n    \n    //point to storage varibles for readability\n    Bet [] storage outcomeBets = outcome[_outcome].outcomeBets;\n    uint[] storage playerBets = outcome[_outcome].playerBets[msg.sender];\n    \n    //update Bet Array, BetTotal and playerBets Array\n    outcomeBets.push(b);\n    outcome[_outcome].outcomeBetTotal = outcome[_outcome].outcomeBetTotal.add(int(b.amount));\n    playerBets.push(outcomeBets.length.sub(1));\n    \n    emit LogBet(msg.sender, msg.value, _outcome, outcome[_outcome].outcomeBetTotal);\n        \n    /// @notice Update the difference between bet amounts after a bet has been made. \n    postBetDifference = outcome[0].outcomeBetTotal.sub(outcome[1].outcomeBetTotal);\n    \n    // use the BetMatch function to work out how much bet should be matched. \n    int BetsMatched = betsToBeMatched(preBetOutcomeDifference, postBetDifference);\n    \n    /// @notice only run the updateBets function if BetsTobEmathced updates BetsMatched to a value greater than 0. \n    if (BetsMatched > 0){\n        updateBets (BetsMatched, _outcome);\n    } \n    \n}\n\n/// @notice Function updates how many bets may be matched after a user makes a Bet. \n/// @param _preBetOutcomeDifference should be preBetOutcomeDifference varible\n/// @param _postBetDifference should be postBetDifference varible\nfunction betsToBeMatched (int _preBetOutcomeDifference, int _postBetDifference) internal returns (int BetsMatched) {\n    if ((_postBetDifference < _preBetOutcomeDifference && _preBetOutcomeDifference <= 0) || (_postBetDifference > _preBetOutcomeDifference && _preBetOutcomeDifference >= 0)) {\n       //Means moving away from zero in the positive direction, without corssing zero. \n    //No Bets should be matched. \n     BetsMatched = 0;\n     emit LogNoMatches(_preBetOutcomeDifference, _postBetDifference, BetsMatched);\n     return BetsMatched;\n       \n       \n    } else if (_postBetDifference > _preBetOutcomeDifference && _preBetOutcomeDifference < 0 && _postBetDifference >= 0) {\n       // Means moved in a positive direcction, crossing zero.\n       // Matched bets should be the difference between postBetDifference and zero \n       int zero = 0;\n       BetsMatched = zero.sub(preBetOutcomeDifference);\n       emit LogMatchMade(_preBetOutcomeDifference, _postBetDifference, BetsMatched);\n       return BetsMatched;\n       \n       \n    } else if (_postBetDifference > _preBetOutcomeDifference && _preBetOutcomeDifference < 0 && _postBetDifference < 0) {\n        /// Means moving towards 0, but not crossing zero.\n        /// Matched bets should equal to the difference between pre and post Bet. \n        BetsMatched = postBetDifference.sub(preBetOutcomeDifference);\n        emit LogMatchMade(_preBetOutcomeDifference, _postBetDifference, BetsMatched);\n        return BetsMatched;\n       \n        \n    }  else if (_postBetDifference < _preBetOutcomeDifference && _preBetOutcomeDifference > 0 && _postBetDifference <= 0) {\n        /// means moving in the negative direction, crossing or reaching zero\n        /// Matched bets should be the difference between preBet Difference and zero. \n        BetsMatched = preBetOutcomeDifference.sub(0);\n        emit LogMatchMade(_preBetOutcomeDifference, _postBetDifference, BetsMatched);\n        return BetsMatched;\n        \n    } else if (_postBetDifference < _preBetOutcomeDifference && _preBetOutcomeDifference > 0 && _postBetDifference > 0) {\n        /// means moving in the negative direction, not reaching or crossing zero.  \n        /// Matched bets should be the difference between pre and post Bet differences. \n        BetsMatched = preBetOutcomeDifference.sub(postBetDifference);\n        emit LogMatchMade(_preBetOutcomeDifference, _postBetDifference, BetsMatched);\n        return BetsMatched;\n        \n    }\n  \n}\n\n/// @notice function which updates Bet matches from the oldest BET that has not been completetly matched. \n/// @param _BetsMatched should be varble BetsMatched. \n/// @param _outcome represent the outcome which the user has bet on. \nfunction updateBets (int _BetsMatched, uint _outcome) internal {\n   // local varibles to update bet struct and \n   uint betAvalabile;\n   uint oppositeOutcome;\n\n    if(_outcome == 0){\n        oppositeOutcome = 1;\n    } else {\n        oppositeOutcome = 0;\n    }\n    // update placed bet\n    outcome[_outcome].outcomeBets[outcome[_outcome].outcomeBets.length.sub(1)].betMatched = outcome[_outcome].outcomeBets[outcome[_outcome].outcomeBets.length.sub(1)].betMatched.add(uint(_BetsMatched));\n    /// increment outcomeABetAvailabilityCounter\n    outcome[_outcome].outcomeBetAvailabilityCounter ++;\n    emit LogBetMakerMatch(_outcome, _BetsMatched);\n       \n    //do while loop to match bets from oldest to youngest \n    do{\n        betAvalabile = outcome[oppositeOutcome].outcomeBets[uint(outcome[oppositeOutcome].outcomeBetAvailabilityCounter)].amount.sub(outcome[oppositeOutcome].outcomeBets[uint(outcome[oppositeOutcome].outcomeBetAvailabilityCounter)].betMatched);\n            if (betAvalabile > uint(_BetsMatched)){\n                \n                outcome[oppositeOutcome].outcomeBets[uint(outcome[oppositeOutcome].outcomeBetAvailabilityCounter)].betMatched = outcome[oppositeOutcome].outcomeBets[uint(outcome[oppositeOutcome].outcomeBetAvailabilityCounter)].betMatched.add(uint(_BetsMatched));\n                \n                //outcomeBBets[outcomeBBetAvailabilityCounter].betMatched = outcomeBBets[outcomeBBetAvailabilityCounter].betMatched.add(uint(_BetsMatched));\n                _BetsMatched = 0;\n                emit LogBetTakerMatch(_outcome, _BetsMatched, betAvalabile);\n                \n            } \n            /// if betAvalaible is equal to betmatch, fill betmatch and increment the avalaibility counter.\n            else if (betAvalabile == uint(_BetsMatched)) {\n                outcome[oppositeOutcome].outcomeBets[uint(outcome[oppositeOutcome].outcomeBetAvailabilityCounter)].betMatched = outcome[oppositeOutcome].outcomeBets[uint(outcome[oppositeOutcome].outcomeBetAvailabilityCounter)].amount;\n                _BetsMatched = 0;\n                outcome[oppositeOutcome].outcomeBetAvailabilityCounter ++;\n                emit LogBetTakerMatch(_outcome, _BetsMatched, betAvalabile);\n            } \n            /// if there is more betmatch than bet avalabile, fill the bet, increment the avalaible bet counter and start again. \n            else if (betAvalabile < uint(_BetsMatched)) {\n                outcome[oppositeOutcome].outcomeBets[uint(outcome[oppositeOutcome].outcomeBetAvailabilityCounter)].betMatched = outcome[oppositeOutcome].outcomeBets[uint(outcome[oppositeOutcome].outcomeBetAvailabilityCounter)].amount;\n                _BetsMatched = _BetsMatched - int(betAvalabile);\n                outcome[oppositeOutcome].outcomeBetAvailabilityCounter ++;\n                emit LogBetTakerMatch(_outcome, _BetsMatched, betAvalabile);\n            }\n          } while (_BetsMatched > 0);\n        }\n        \n    function withdrawUnmatchedBets() stopInEmergency public {\n        \n        uint withdrawAmount = 0;\n        uint withdrawOutcome = 0;\n    \n        /// @notice assign withdraw outcome based on which bet has more bet on it\n        if (outcome[withdrawOutcome].outcomeBetTotal > outcome[1].outcomeBetTotal) {\n            withdrawOutcome = 0;\n        } else if (outcome[withdrawOutcome].outcomeBetTotal < outcome[1].outcomeBetTotal) {\n           withdrawOutcome = 1;\n        } else {\n            return();\n        }\n        \n            for (uint i = uint(outcome[withdrawOutcome].outcomeBetAvailabilityCounter); i < outcome[withdrawOutcome].outcomeBets.length; i++) {\n                if (outcome[withdrawOutcome].outcomeBets[i].betMaker == msg.sender) {\n                    //update withdraw amount \n                    withdrawAmount = withdrawAmount.add((outcome[withdrawOutcome].outcomeBets[i].amount.sub(outcome[withdrawOutcome].outcomeBets[i].betMatched)));\n                    //update bet struct amount to equal betMatched\n                    outcome[withdrawOutcome].outcomeBets[i].amount = outcome[withdrawOutcome].outcomeBets[i].betMatched;\n                    //update Betoutcome total \n                    outcome[withdrawOutcome].outcomeBetTotal = outcome[withdrawOutcome].outcomeBetTotal.sub(int(withdrawAmount));               \n                }\n               emit LogWithdrawUnMatchedBet(withdrawAmount, withdrawOutcome);\n            }\n        msg.sender.transfer(withdrawAmount);   \n    }\n    \n    /// @notice a getter function to find unmatched bets and amounts\n    function getOutcomeBetAmount(uint _outcome, uint _betArrayIndex) external view returns (uint _amount, uint _betMatched ) {\n        uint amount = outcome[_outcome].outcomeBets[_betArrayIndex].amount;\n        uint betMatched = outcome[_outcome].outcomeBets[_betArrayIndex].betMatched;\n        return (amount, betMatched);\n    }\n    /// @notice a function for getting the player bets\n    function getPlayerBetsArrayLength(uint _outcome) view public returns (uint) {\n        uint playerBetIndexLength;\n        playerBetIndexLength = outcome[_outcome].playerBets[msg.sender].length;\n        return playerBetIndexLength;\n    }\n    \n    /// @notice resolve bet\n    function resolveBet (uint _winningOutcome) onlyOwner public {\n        require(state == States.Open, \"Can only resolve a bet if its open\");\n        require(_winningOutcome == 0 || _winningOutcome == 1, \"Valid outcomes can be 0 or 1\");\n        state = States.Resolved;\n        winningOutcome = _winningOutcome;\n        emit logResolveBet(winningOutcome);\n    }\n    /// @notice redeem bet\n    function redeem() stopInEmergency public {\n        require(state == States.Resolved, \"Bet must be resolved before redeeming\");\n        require (getPlayerBetsArrayLength(winningOutcome) > 0, \"User must of made a bet on winning outcome\");\n        uint playerBetIndex;\n        uint winnings;\n        // loop through a players winning bets\n        for(uint i = 0; i <= getPlayerBetsArrayLength(winningOutcome).sub(1); i ++) {\n        playerBetIndex = outcome[winningOutcome].playerBets[msg.sender][i];\n        emit logRedeemBet(playerBetIndex);\n        // now check index if its less than bet avalaible\n        if (int(playerBetIndex) <= outcome[winningOutcome].outcomeBetAvailabilityCounter) {\n        // add amount to send user\n        winnings = winnings.add(outcome[winningOutcome].outcomeBets[playerBetIndex].betMatched);\n        //update BetMatched to equal zero to prevent double claims\n        outcome[winningOutcome].outcomeBets[playerBetIndex].betMatched = 0;\n        }\n     }\n    // multiple winnings to reflect matched Bets\n    winnings = winnings.mul(2);\n    emit logWinnings(winnings);\n    msg.sender.transfer(winnings);\n    }\n\n    /// @notice function to change emergancy stop\n    function emergancyStop() onlyOwner public {\n        stopped = !stopped;\n    }\n\n    /// @notice function to get outcomeA and B description\n    function getOutcomeDescriptions() public view returns (string memory, string memory) {\n     string memory descriptionA = outcome[outcomeA].outcomeDescription;\n     string  memory descriptionB = outcome[outcomeB].outcomeDescription;\n     return (descriptionA, descriptionB);\n    }\n\n    /// @notice function to get Bet Totals\n    function getOutcomeTotals() public view returns (int, int ) {\n        int outcomeABetTotal = outcome[outcomeA].outcomeBetTotal;\n        int outcomeBBetTotal = outcome[outcomeB].outcomeBetTotal;\n        return (outcomeABetTotal, outcomeBBetTotal);\n    }\n\n \n    /// @notice fallback function\n    fallback() external { }\n    \n    \n}\n",
  "sourcePath": "/Users/graemebarnes/Desktop/consensys_final_frontend/contracts/AllOrNothing.sol",
  "compiler": {
    "name": "solc",
    "version": "0.6.12+commit.27d51765.Emscripten.clang"
  },
  "schemaVersion": "3.3.1",
  "updatedAt": "2021-01-02T15:57:28.176Z",
  "networkType": "ethereum",
  "devdoc": {
    "author": "Graeme Barnes",
    "details": "This contract has not been audited and has implict assumption that bet has two outcomes, A and B. ",
    "kind": "dev",
    "methods": {
      "placeBet(uint256)": {
        "params": {
          "_outcome": ", 0 or 1 will place bet in A or B array respectively. "
        }
      }
    },
    "title": "A betting market maker which matches bets at a one to one ratio. ",
    "version": 1
  },
  "userdoc": {
    "events": {
      "LogBet(address,uint256,uint256,int256)": {
        "notice": "Log events when user has made a bet"
      },
      "LogBetMakerMatch(uint256,int256)": {
        "notice": "Log events for updating Bets  add varibles for the Bet's Amount and BetMatched after Bet. "
      },
      "LogNoMatches(int256,int256,int256)": {
        "notice": "Log events for BetsToBeMatched function"
      },
      "logRedeemBet(uint256)": {
        "notice": "log evetns for redeeming matched bets"
      },
      "logResolveBet(uint256)": {
        "notice": "log events for resolving a market"
      },
      "logWithdrawalLoop(uint256,uint256)": {
        "notice": "Log events for withdrawing unMatched Bets"
      }
    },
    "kind": "user",
    "methods": {
      "betDescription()": {
        "notice": "Bet description"
      },
      "emergancyStop()": {
        "notice": "function to change emergancy stop"
      },
      "getOutcomeBetAmount(uint256,uint256)": {
        "notice": "a getter function to find unmatched bets and amounts"
      },
      "getOutcomeDescriptions()": {
        "notice": "function to get outcomeA and B description"
      },
      "getOutcomeTotals()": {
        "notice": "function to get Bet Totals"
      },
      "getPlayerBetsArrayLength(uint256)": {
        "notice": "a function for getting the player bets"
      },
      "outcome(uint256)": {
        "notice": "map outcomes to thier metadata"
      },
      "outcomeA()": {
        "notice": "outcomes A and B are represent by 0 and  respectively so that it may be used as an in put in the Bet function. "
      },
      "owner()": {
        "notice": "Owner of contract may resolve betDescription"
      },
      "placeBet(uint256)": {
        "notice": "function for user to make a bet by adding a Bet to the corresponding bet array. "
      },
      "redeem()": {
        "notice": "redeem bet"
      },
      "resolveBet(uint256)": {
        "notice": "resolve bet"
      },
      "state()": {
        "notice": "state is set to open"
      },
      "stopped()": {
        "notice": "emergancy Stop varible"
      },
      "winningOutcome()": {
        "notice": "winningOutcome "
      }
    },
    "notice": "This contract faciliates all or nothing betting",
    "version": 1
  }
}